{
  "abi": [
    {
      "inputs": [
        {
          "internalType": "string",
          "name": "_baseURI",
          "type": "string"
        }
      ],
      "stateMutability": "nonpayable",
      "type": "constructor"
    },
    {
      "anonymous": false,
      "inputs": [
        {
          "indexed": true,
          "internalType": "address",
          "name": "previousOwner",
          "type": "address"
        },
        {
          "indexed": true,
          "internalType": "address",
          "name": "newOwner",
          "type": "address"
        }
      ],
      "name": "OwnershipTransferred",
      "type": "event"
    },
    {
      "inputs": [],
      "name": "baseURI",
      "outputs": [
        {
          "internalType": "string",
          "name": "",
          "type": "string"
        }
      ],
      "stateMutability": "view",
      "type": "function"
    },
    {
      "inputs": [],
      "name": "owner",
      "outputs": [
        {
          "internalType": "address",
          "name": "",
          "type": "address"
        }
      ],
      "stateMutability": "view",
      "type": "function"
    },
    {
      "inputs": [],
      "name": "renounceOwnership",
      "outputs": [],
      "stateMutability": "nonpayable",
      "type": "function"
    },
    {
      "inputs": [
        {
          "internalType": "string",
          "name": "_baseURI",
          "type": "string"
        }
      ],
      "name": "setBaseURI",
      "outputs": [],
      "stateMutability": "nonpayable",
      "type": "function"
    },
    {
      "inputs": [
        {
          "internalType": "uint256",
          "name": "id",
          "type": "uint256"
        }
      ],
      "name": "tokenURI",
      "outputs": [
        {
          "internalType": "string",
          "name": "",
          "type": "string"
        }
      ],
      "stateMutability": "view",
      "type": "function"
    },
    {
      "inputs": [
        {
          "internalType": "address",
          "name": "newOwner",
          "type": "address"
        }
      ],
      "name": "transferOwnership",
      "outputs": [],
      "stateMutability": "nonpayable",
      "type": "function"
    }
  ],
  "bytecode": {
    "object": "0x60806040523480156200001157600080fd5b5060405162000add38038062000add8339810160408190526200003491620000bb565b6200003f3362000055565b60016200004d82826200021f565b5050620002eb565b600080546001600160a01b038381166001600160a01b0319831681178455604051919092169283917f8be0079c531659141344cd1fd0a4f28419497f9722a3daafe3b4186f6b6457e09190a35050565b634e487b7160e01b600052604160045260246000fd5b60006020808385031215620000cf57600080fd5b82516001600160401b0380821115620000e757600080fd5b818501915085601f830112620000fc57600080fd5b815181811115620001115762000111620000a5565b604051601f8201601f19908116603f011681019083821181831017156200013c576200013c620000a5565b8160405282815288868487010111156200015557600080fd5b600093505b828410156200017957848401860151818501870152928501926200015a565b600086848301015280965050505050505092915050565b600181811c90821680620001a557607f821691505b602082108103620001c657634e487b7160e01b600052602260045260246000fd5b50919050565b601f8211156200021a57600081815260208120601f850160051c81016020861015620001f55750805b601f850160051c820191505b81811015620002165782815560010162000201565b5050505b505050565b81516001600160401b038111156200023b576200023b620000a5565b62000253816200024c845462000190565b84620001cc565b602080601f8311600181146200028b5760008415620002725750858301515b600019600386901b1c1916600185901b17855562000216565b600085815260208120601f198616915b82811015620002bc578886015182559484019460019091019084016200029b565b5085821015620002db5787850151600019600388901b60f8161c191681555b5050505050600190811b01905550565b6107e280620002fb6000396000f3fe608060405234801561001057600080fd5b50600436106100625760003560e01c806355f804b3146100675780636c0360eb1461007c578063715018a61461009a5780638da5cb5b146100a2578063c87b56dd146100bd578063f2fde38b146100d0575b600080fd5b61007a61007536600461047b565b6100e3565b005b6100846100fb565b6040516100919190610550565b60405180910390f35b61007a610189565b6000546040516001600160a01b039091168152602001610091565b6100846100cb366004610583565b61019d565b61007a6100de36600461059c565b6101d1565b6100eb61024f565b60016100f78282610655565b5050565b60018054610108906105cc565b80601f0160208091040260200160405190810160405280929190818152602001828054610134906105cc565b80156101815780601f1061015657610100808354040283529160200191610181565b820191906000526020600020905b81548152906001019060200180831161016457829003601f168201915b505050505081565b61019161024f565b61019b60006102a9565b565b606060016101aa836102f9565b6040516020016101bb929190610715565b6040516020818303038152906040529050919050565b6101d961024f565b6001600160a01b0381166102435760405162461bcd60e51b815260206004820152602660248201527f4f776e61626c653a206e6577206f776e657220697320746865207a65726f206160448201526564647265737360d01b60648201526084015b60405180910390fd5b61024c816102a9565b50565b6000546001600160a01b0316331461019b5760405162461bcd60e51b815260206004820181905260248201527f4f776e61626c653a2063616c6c6572206973206e6f7420746865206f776e6572604482015260640161023a565b600080546001600160a01b038381166001600160a01b0319831681178455604051919092169283917f8be0079c531659141344cd1fd0a4f28419497f9722a3daafe3b4186f6b6457e09190a35050565b606060006103068361038c565b600101905060008167ffffffffffffffff81111561032657610326610465565b6040519080825280601f01601f191660200182016040528015610350576020820181803683370190505b5090508181016020015b600019016f181899199a1a9b1b9c1cb0b131b232b360811b600a86061a8153600a850494508461035a57509392505050565b60008072184f03e93ff9f4daa797ed6e38ed64bf6a1f0160401b83106103cb5772184f03e93ff9f4daa797ed6e38ed64bf6a1f0160401b830492506040015b6d04ee2d6d415b85acef810000000083106103f7576d04ee2d6d415b85acef8100000000830492506020015b662386f26fc10000831061041557662386f26fc10000830492506010015b6305f5e100831061042d576305f5e100830492506008015b612710831061044157612710830492506004015b60648310610453576064830492506002015b600a831061045f576001015b92915050565b634e487b7160e01b600052604160045260246000fd5b60006020828403121561048d57600080fd5b813567ffffffffffffffff808211156104a557600080fd5b818401915084601f8301126104b957600080fd5b8135818111156104cb576104cb610465565b604051601f8201601f19908116603f011681019083821181831017156104f3576104f3610465565b8160405282815287602084870101111561050c57600080fd5b826020860160208301376000928101602001929092525095945050505050565b60005b8381101561054757818101518382015260200161052f565b50506000910152565b602081526000825180602084015261056f81604085016020870161052c565b601f01601f19169190910160400192915050565b60006020828403121561059557600080fd5b5035919050565b6000602082840312156105ae57600080fd5b81356001600160a01b03811681146105c557600080fd5b9392505050565b600181811c908216806105e057607f821691505b60208210810361060057634e487b7160e01b600052602260045260246000fd5b50919050565b601f82111561065057600081815260208120601f850160051c8101602086101561062d5750805b601f850160051c820191505b8181101561064c57828155600101610639565b5050505b505050565b815167ffffffffffffffff81111561066f5761066f610465565b6106838161067d84546105cc565b84610606565b602080601f8311600181146106b857600084156106a05750858301515b600019600386901b1c1916600185901b17855561064c565b600085815260208120601f198616915b828110156106e7578886015182559484019460019091019084016106c8565b50858210156107055787850151600019600388901b60f8161c191681555b5050505050600190811b01905550565b6000808454610723816105cc565b6001828116801561073b57600181146107505761077f565b60ff198416875282151583028701945061077f565b8860005260208060002060005b858110156107765781548a82015290840190820161075d565b50505082870194505b50505050835161079381836020880161052c565b64173539b7b760d91b910190815260050194935050505056fea2646970667358221220a3e758e094e77a7e39aee0c4f850218ad76786be7fc113e62ceb9f56ed6eaba364736f6c63430008130033",
    "linkReferences": {}
  },
  "methodIdentifiers": {
    "baseURI()": "6c0360eb",
    "owner()": "8da5cb5b",
    "renounceOwnership()": "715018a6",
    "setBaseURI(string)": "55f804b3",
    "tokenURI(uint256)": "c87b56dd",
    "transferOwnership(address)": "f2fde38b"
  },
  "id": 25
}