{
  "abi": [
    {
      "inputs": [
        {
          "internalType": "string",
          "name": "_baseURI",
          "type": "string"
        }
      ],
      "stateMutability": "nonpayable",
      "type": "constructor"
    },
    {
      "anonymous": false,
      "inputs": [
        {
          "indexed": true,
          "internalType": "address",
          "name": "previousOwner",
          "type": "address"
        },
        {
          "indexed": true,
          "internalType": "address",
          "name": "newOwner",
          "type": "address"
        }
      ],
      "name": "OwnershipTransferred",
      "type": "event"
    },
    {
      "inputs": [],
      "name": "baseURI",
      "outputs": [
        {
          "internalType": "string",
          "name": "",
          "type": "string"
        }
      ],
      "stateMutability": "view",
      "type": "function"
    },
    {
      "inputs": [],
      "name": "owner",
      "outputs": [
        {
          "internalType": "address",
          "name": "",
          "type": "address"
        }
      ],
      "stateMutability": "view",
      "type": "function"
    },
    {
      "inputs": [],
      "name": "renounceOwnership",
      "outputs": [],
      "stateMutability": "nonpayable",
      "type": "function"
    },
    {
      "inputs": [
        {
          "internalType": "string",
          "name": "_baseURI",
          "type": "string"
        }
      ],
      "name": "setBaseURI",
      "outputs": [],
      "stateMutability": "nonpayable",
      "type": "function"
    },
    {
      "inputs": [
        {
          "internalType": "uint256",
          "name": "id",
          "type": "uint256"
        },
        {
          "internalType": "string",
          "name": "transactionId",
          "type": "string"
        }
      ],
      "name": "setTokenURI",
      "outputs": [],
      "stateMutability": "nonpayable",
      "type": "function"
    },
    {
      "inputs": [
        {
          "internalType": "uint256",
          "name": "tokenId",
          "type": "uint256"
        }
      ],
      "name": "tokenMetadata",
      "outputs": [
        {
          "internalType": "string",
          "name": "tokenURI",
          "type": "string"
        }
      ],
      "stateMutability": "view",
      "type": "function"
    },
    {
      "inputs": [
        {
          "internalType": "uint256",
          "name": "id",
          "type": "uint256"
        }
      ],
      "name": "tokenURI",
      "outputs": [
        {
          "internalType": "string",
          "name": "",
          "type": "string"
        }
      ],
      "stateMutability": "view",
      "type": "function"
    },
    {
      "inputs": [
        {
          "internalType": "address",
          "name": "newOwner",
          "type": "address"
        }
      ],
      "name": "transferOwnership",
      "outputs": [],
      "stateMutability": "nonpayable",
      "type": "function"
    }
  ],
  "bytecode": {
    "object": "0x60806040523480156200001157600080fd5b5060405162000ac638038062000ac68339810160408190526200003491620000bb565b6200003f3362000055565b60016200004d82826200021f565b5050620002eb565b600080546001600160a01b038381166001600160a01b0319831681178455604051919092169283917f8be0079c531659141344cd1fd0a4f28419497f9722a3daafe3b4186f6b6457e09190a35050565b634e487b7160e01b600052604160045260246000fd5b60006020808385031215620000cf57600080fd5b82516001600160401b0380821115620000e757600080fd5b818501915085601f830112620000fc57600080fd5b815181811115620001115762000111620000a5565b604051601f8201601f19908116603f011681019083821181831017156200013c576200013c620000a5565b8160405282815288868487010111156200015557600080fd5b600093505b828410156200017957848401860151818501870152928501926200015a565b600086848301015280965050505050505092915050565b600181811c90821680620001a557607f821691505b602082108103620001c657634e487b7160e01b600052602260045260246000fd5b50919050565b601f8211156200021a57600081815260208120601f850160051c81016020861015620001f55750805b601f850160051c820191505b81811015620002165782815560010162000201565b5050505b505050565b81516001600160401b038111156200023b576200023b620000a5565b62000253816200024c845462000190565b84620001cc565b602080601f8311600181146200028b5760008415620002725750858301515b600019600386901b1c1916600185901b17855562000216565b600085815260208120601f198616915b82811015620002bc578886015182559484019460019091019084016200029b565b5085821015620002db5787850151600019600388901b60f8161c191681555b5050505050600190811b01905550565b6107cb80620002fb6000396000f3fe608060405234801561001057600080fd5b50600436106100885760003560e01c8063715018a61161005b578063715018a6146100e65780638da5cb5b146100ee578063c87b56dd14610109578063f2fde38b1461011c57600080fd5b8063162094c41461008d57806355f804b3146100a25780636914db60146100b55780636c0360eb146100de575b600080fd5b6100a061009b3660046104aa565b61012f565b005b6100a06100b03660046104f1565b610196565b6100c86100c336600461052e565b6101ae565b6040516100d59190610547565b60405180910390f35b6100c8610248565b6100a0610255565b6000546040516001600160a01b0390911681526020016100d5565b6100c861011736600461052e565b610269565b6100a061012a366004610595565b6102e4565b61013761035d565b816001146101795760405162461bcd60e51b815260206004820152600a6024820152694f4e455f4f465f4f4e4560b01b60448201526064015b60405180910390fd5b6000828152600260205260409020610191828261064d565b505050565b61019e61035d565b60016101aa828261064d565b5050565b600260205260009081526040902080546101c7906105c5565b80601f01602080910402602001604051908101604052809291908181526020018280546101f3906105c5565b80156102405780601f1061021557610100808354040283529160200191610240565b820191906000526020600020905b81548152906001019060200180831161022357829003601f168201915b505050505081565b600180546101c7906105c5565b61025d61035d565b61026760006103b7565b565b6060816001146102a85760405162461bcd60e51b815260206004820152600a6024820152694f4e455f4f465f4f4e4560b01b6044820152606401610170565b6001600260008481526020019081526020016000206040516020016102ce929190610780565b6040516020818303038152906040529050919050565b6102ec61035d565b6001600160a01b0381166103515760405162461bcd60e51b815260206004820152602660248201527f4f776e61626c653a206e6577206f776e657220697320746865207a65726f206160448201526564647265737360d01b6064820152608401610170565b61035a816103b7565b50565b6000546001600160a01b031633146102675760405162461bcd60e51b815260206004820181905260248201527f4f776e61626c653a2063616c6c6572206973206e6f7420746865206f776e65726044820152606401610170565b600080546001600160a01b038381166001600160a01b0319831681178455604051919092169283917f8be0079c531659141344cd1fd0a4f28419497f9722a3daafe3b4186f6b6457e09190a35050565b634e487b7160e01b600052604160045260246000fd5b600082601f83011261042e57600080fd5b813567ffffffffffffffff8082111561044957610449610407565b604051601f8301601f19908116603f0116810190828211818310171561047157610471610407565b8160405283815286602085880101111561048a57600080fd5b836020870160208301376000602085830101528094505050505092915050565b600080604083850312156104bd57600080fd5b82359150602083013567ffffffffffffffff8111156104db57600080fd5b6104e78582860161041d565b9150509250929050565b60006020828403121561050357600080fd5b813567ffffffffffffffff81111561051a57600080fd5b6105268482850161041d565b949350505050565b60006020828403121561054057600080fd5b5035919050565b600060208083528351808285015260005b8181101561057457858101830151858201604001528201610558565b506000604082860101526040601f19601f8301168501019250505092915050565b6000602082840312156105a757600080fd5b81356001600160a01b03811681146105be57600080fd5b9392505050565b600181811c908216806105d957607f821691505b6020821081036105f957634e487b7160e01b600052602260045260246000fd5b50919050565b601f82111561019157600081815260208120601f850160051c810160208610156106265750805b601f850160051c820191505b8181101561064557828155600101610632565b505050505050565b815167ffffffffffffffff81111561066757610667610407565b61067b8161067584546105c5565b846105ff565b602080601f8311600181146106b057600084156106985750858301515b600019600386901b1c1916600185901b178555610645565b600085815260208120601f198616915b828110156106df578886015182559484019460019091019084016106c0565b50858210156106fd5787850151600019600388901b60f8161c191681555b5050505050600190811b01905550565b6000815461071a816105c5565b60018281168015610732576001811461074757610776565b60ff1984168752821515830287019450610776565b8560005260208060002060005b8581101561076d5781548a820152908401908201610754565b50505082870194505b5050505092915050565b600061052661078f838661070d565b8461070d56fea2646970667358221220876b767d6e3c78d17415bdb7eacbd157ef66a8f7f0aa56d6355da2379251194a64736f6c63430008130033",
    "linkReferences": {}
  },
  "methodIdentifiers": {
    "baseURI()": "6c0360eb",
    "owner()": "8da5cb5b",
    "renounceOwnership()": "715018a6",
    "setBaseURI(string)": "55f804b3",
    "setTokenURI(uint256,string)": "162094c4",
    "tokenMetadata(uint256)": "6914db60",
    "tokenURI(uint256)": "c87b56dd",
    "transferOwnership(address)": "f2fde38b"
  },
  "id": 23
}