{
  "abi": [
    {
      "inputs": [
        {
          "internalType": "string",
          "name": "_name",
          "type": "string"
        },
        {
          "internalType": "string",
          "name": "_symbol",
          "type": "string"
        },
        {
          "internalType": "address",
          "name": "deployer",
          "type": "address"
        }
      ],
      "stateMutability": "nonpayable",
      "type": "constructor"
    },
    {
      "anonymous": false,
      "inputs": [
        {
          "indexed": true,
          "internalType": "address",
          "name": "owner",
          "type": "address"
        },
        {
          "indexed": true,
          "internalType": "address",
          "name": "spender",
          "type": "address"
        },
        {
          "indexed": true,
          "internalType": "uint256",
          "name": "id",
          "type": "uint256"
        }
      ],
      "name": "Approval",
      "type": "event"
    },
    {
      "anonymous": false,
      "inputs": [
        {
          "indexed": true,
          "internalType": "address",
          "name": "owner",
          "type": "address"
        },
        {
          "indexed": true,
          "internalType": "address",
          "name": "operator",
          "type": "address"
        },
        {
          "indexed": false,
          "internalType": "bool",
          "name": "approved",
          "type": "bool"
        }
      ],
      "name": "ApprovalForAll",
      "type": "event"
    },
    {
      "anonymous": false,
      "inputs": [
        {
          "indexed": true,
          "internalType": "address",
          "name": "previousOwner",
          "type": "address"
        },
        {
          "indexed": true,
          "internalType": "address",
          "name": "newOwner",
          "type": "address"
        }
      ],
      "name": "OwnershipTransferred",
      "type": "event"
    },
    {
      "anonymous": false,
      "inputs": [
        {
          "indexed": true,
          "internalType": "address",
          "name": "from",
          "type": "address"
        },
        {
          "indexed": true,
          "internalType": "address",
          "name": "to",
          "type": "address"
        },
        {
          "indexed": true,
          "internalType": "uint256",
          "name": "id",
          "type": "uint256"
        }
      ],
      "name": "Transfer",
      "type": "event"
    },
    {
      "inputs": [
        {
          "internalType": "address",
          "name": "spender",
          "type": "address"
        },
        {
          "internalType": "uint256",
          "name": "id",
          "type": "uint256"
        }
      ],
      "name": "approve",
      "outputs": [],
      "stateMutability": "nonpayable",
      "type": "function"
    },
    {
      "inputs": [
        {
          "internalType": "address",
          "name": "owner",
          "type": "address"
        }
      ],
      "name": "balanceOf",
      "outputs": [
        {
          "internalType": "uint256",
          "name": "",
          "type": "uint256"
        }
      ],
      "stateMutability": "view",
      "type": "function"
    },
    {
      "inputs": [
        {
          "internalType": "uint256",
          "name": "",
          "type": "uint256"
        }
      ],
      "name": "getApproved",
      "outputs": [
        {
          "internalType": "address",
          "name": "",
          "type": "address"
        }
      ],
      "stateMutability": "view",
      "type": "function"
    },
    {
      "inputs": [
        {
          "internalType": "address",
          "name": "",
          "type": "address"
        },
        {
          "internalType": "address",
          "name": "",
          "type": "address"
        }
      ],
      "name": "isApprovedForAll",
      "outputs": [
        {
          "internalType": "bool",
          "name": "",
          "type": "bool"
        }
      ],
      "stateMutability": "view",
      "type": "function"
    },
    {
      "inputs": [],
      "name": "metadataRenderer",
      "outputs": [
        {
          "internalType": "address",
          "name": "",
          "type": "address"
        }
      ],
      "stateMutability": "view",
      "type": "function"
    },
    {
      "inputs": [],
      "name": "name",
      "outputs": [
        {
          "internalType": "string",
          "name": "",
          "type": "string"
        }
      ],
      "stateMutability": "view",
      "type": "function"
    },
    {
      "inputs": [],
      "name": "owner",
      "outputs": [
        {
          "internalType": "address",
          "name": "",
          "type": "address"
        }
      ],
      "stateMutability": "view",
      "type": "function"
    },
    {
      "inputs": [
        {
          "internalType": "uint256",
          "name": "id",
          "type": "uint256"
        }
      ],
      "name": "ownerOf",
      "outputs": [
        {
          "internalType": "address",
          "name": "owner",
          "type": "address"
        }
      ],
      "stateMutability": "view",
      "type": "function"
    },
    {
      "inputs": [],
      "name": "renounceOwnership",
      "outputs": [],
      "stateMutability": "nonpayable",
      "type": "function"
    },
    {
      "inputs": [
        {
          "internalType": "address",
          "name": "from",
          "type": "address"
        },
        {
          "internalType": "address",
          "name": "to",
          "type": "address"
        },
        {
          "internalType": "uint256",
          "name": "id",
          "type": "uint256"
        }
      ],
      "name": "safeTransferFrom",
      "outputs": [],
      "stateMutability": "nonpayable",
      "type": "function"
    },
    {
      "inputs": [
        {
          "internalType": "address",
          "name": "from",
          "type": "address"
        },
        {
          "internalType": "address",
          "name": "to",
          "type": "address"
        },
        {
          "internalType": "uint256",
          "name": "id",
          "type": "uint256"
        },
        {
          "internalType": "bytes",
          "name": "data",
          "type": "bytes"
        }
      ],
      "name": "safeTransferFrom",
      "outputs": [],
      "stateMutability": "nonpayable",
      "type": "function"
    },
    {
      "inputs": [
        {
          "internalType": "address",
          "name": "operator",
          "type": "address"
        },
        {
          "internalType": "bool",
          "name": "approved",
          "type": "bool"
        }
      ],
      "name": "setApprovalForAll",
      "outputs": [],
      "stateMutability": "nonpayable",
      "type": "function"
    },
    {
      "inputs": [
        {
          "internalType": "address",
          "name": "_metadataRenderer",
          "type": "address"
        }
      ],
      "name": "setMetadataRenderer",
      "outputs": [],
      "stateMutability": "nonpayable",
      "type": "function"
    },
    {
      "inputs": [
        {
          "internalType": "uint256",
          "name": "id",
          "type": "uint256"
        },
        {
          "internalType": "string",
          "name": "transactionId",
          "type": "string"
        }
      ],
      "name": "setTokenURI",
      "outputs": [],
      "stateMutability": "nonpayable",
      "type": "function"
    },
    {
      "inputs": [
        {
          "internalType": "bytes4",
          "name": "interfaceId",
          "type": "bytes4"
        }
      ],
      "name": "supportsInterface",
      "outputs": [
        {
          "internalType": "bool",
          "name": "",
          "type": "bool"
        }
      ],
      "stateMutability": "view",
      "type": "function"
    },
    {
      "inputs": [],
      "name": "symbol",
      "outputs": [
        {
          "internalType": "string",
          "name": "",
          "type": "string"
        }
      ],
      "stateMutability": "view",
      "type": "function"
    },
    {
      "inputs": [
        {
          "internalType": "uint256",
          "name": "id",
          "type": "uint256"
        }
      ],
      "name": "tokenURI",
      "outputs": [
        {
          "internalType": "string",
          "name": "",
          "type": "string"
        }
      ],
      "stateMutability": "view",
      "type": "function"
    },
    {
      "inputs": [
        {
          "internalType": "address",
          "name": "from",
          "type": "address"
        },
        {
          "internalType": "address",
          "name": "to",
          "type": "address"
        },
        {
          "internalType": "uint256",
          "name": "id",
          "type": "uint256"
        }
      ],
      "name": "transferFrom",
      "outputs": [],
      "stateMutability": "nonpayable",
      "type": "function"
    },
    {
      "inputs": [
        {
          "internalType": "address",
          "name": "newOwner",
          "type": "address"
        }
      ],
      "name": "transferOwnership",
      "outputs": [],
      "stateMutability": "nonpayable",
      "type": "function"
    }
  ],
  "bytecode": {
    "object": "0x60806040523480156200001157600080fd5b50604051620015be380380620015be8339810160408190526200003491620002b4565b82826000620000448382620003d0565b506001620000538282620003d0565b505050620000706200006a6200008660201b60201c565b6200008a565b6200007d816001620000dc565b5050506200049c565b3390565b600680546001600160a01b038381166001600160a01b0319831681179093556040519116919082907f8be0079c531659141344cd1fd0a4f28419497f9722a3daafe3b4186f6b6457e090600090a35050565b6001600160a01b0382166200012c5760405162461bcd60e51b81526020600482015260116024820152701253959053125117d49150d25412515395607a1b60448201526064015b60405180910390fd5b6000818152600260205260409020546001600160a01b031615620001845760405162461bcd60e51b815260206004820152600e60248201526d1053149150511657d3525395115160921b604482015260640162000123565b6001600160a01b038216600081815260036020908152604080832080546001019055848352600290915280822080546001600160a01b0319168417905551839291907fddf252ad1be2c89b69c2b068fc378daa952ba7f163c4a11628f55a4df523b3ef908290a45050565b634e487b7160e01b600052604160045260246000fd5b600082601f8301126200021757600080fd5b81516001600160401b0380821115620002345762000234620001ef565b604051601f8301601f19908116603f011681019082821181831017156200025f576200025f620001ef565b816040528381526020925086838588010111156200027c57600080fd5b600091505b83821015620002a0578582018301518183018401529082019062000281565b600093810190920192909252949350505050565b600080600060608486031215620002ca57600080fd5b83516001600160401b0380821115620002e257600080fd5b620002f08783880162000205565b945060208601519150808211156200030757600080fd5b50620003168682870162000205565b604086015190935090506001600160a01b03811681146200033657600080fd5b809150509250925092565b600181811c908216806200035657607f821691505b6020821081036200037757634e487b7160e01b600052602260045260246000fd5b50919050565b601f821115620003cb57600081815260208120601f850160051c81016020861015620003a65750805b601f850160051c820191505b81811015620003c757828155600101620003b2565b5050505b505050565b81516001600160401b03811115620003ec57620003ec620001ef565b6200040481620003fd845462000341565b846200037d565b602080601f8311600181146200043c5760008415620004235750858301515b600019600386901b1c1916600185901b178555620003c7565b600085815260208120601f198616915b828110156200046d578886015182559484019460019091019084016200044c565b50858210156200048c5787850151600019600388901b60f8161c191681555b5050505050600190811b01905550565b61111280620004ac6000396000f3fe608060405234801561001057600080fd5b50600436106101215760003560e01c806370a08231116100ad578063b88d4fde11610071578063b88d4fde1461026d578063c87b56dd14610280578063e985e9c514610293578063f2fde38b146102c1578063fd4fe8a8146102d457600080fd5b806370a0823114610218578063715018a6146102395780638da5cb5b1461024157806395d89b4114610252578063a22cb4651461025a57600080fd5b8063162094c4116100f4578063162094c4146101b957806323b872dd146101cc57806342842e0e146101df5780636352211e146101f2578063703199701461020557600080fd5b806301ffc9a71461012657806306fdde031461014e578063081812fc14610163578063095ea7b3146101a4575b600080fd5b610139610134366004610c5e565b6102e7565b60405190151581526020015b60405180910390f35b610156610339565b6040516101459190610cd2565b61018c610171366004610ce5565b6004602052600090815260409020546001600160a01b031681565b6040516001600160a01b039091168152602001610145565b6101b76101b2366004610d15565b6103c7565b005b6101b76101c7366004610dae565b6104ae565b6101b76101da366004610e38565b61055b565b6101b76101ed366004610e38565b610722565b61018c610200366004610ce5565b61081a565b60075461018c906001600160a01b031681565b61022b610226366004610e74565b610871565b604051908152602001610145565b6101b76108d4565b6006546001600160a01b031661018c565b6101566108e8565b6101b7610268366004610e8f565b6108f5565b6101b761027b366004610ecb565b610961565b61015661028e366004610ce5565b610a49565b6101396102a1366004610f66565b600560209081526000928352604080842090915290825290205460ff1681565b6101b76102cf366004610e74565b610af9565b6101b76102e2366004610e74565b610b72565b60006301ffc9a760e01b6001600160e01b03198316148061031857506380ac58cd60e01b6001600160e01b03198316145b806103335750635b5e139f60e01b6001600160e01b03198316145b92915050565b6000805461034690610f99565b80601f016020809104026020016040519081016040528092919081815260200182805461037290610f99565b80156103bf5780601f10610394576101008083540402835291602001916103bf565b820191906000526020600020905b8154815290600101906020018083116103a257829003601f168201915b505050505081565b6000818152600260205260409020546001600160a01b03163381148061041057506001600160a01b038116600090815260056020908152604080832033845290915290205460ff165b6104525760405162461bcd60e51b815260206004820152600e60248201526d1393d517d055551213d49256915160921b60448201526064015b60405180910390fd5b60008281526004602052604080822080546001600160a01b0319166001600160a01b0387811691821790925591518593918516917f8c5be1e5ebec7d5bd14f71427d1e84f3dd0314c0f7b2291e5b200ac8c7c3b92591a4505050565b6104b6610b9c565b816001146104f35760405162461bcd60e51b815260206004820152600a6024820152694f4e455f4f465f4f4e4560b01b6044820152606401610449565b600754604051630588253160e21b81526001600160a01b039091169063162094c4906105259085908590600401610fd3565b600060405180830381600087803b15801561053f57600080fd5b505af1158015610553573d6000803e3d6000fd5b505050505050565b6000818152600260205260409020546001600160a01b038481169116146105b15760405162461bcd60e51b815260206004820152600a60248201526957524f4e475f46524f4d60b01b6044820152606401610449565b6001600160a01b0382166105fb5760405162461bcd60e51b81526020600482015260116024820152701253959053125117d49150d25412515395607a1b6044820152606401610449565b336001600160a01b038416148061063557506001600160a01b038316600090815260056020908152604080832033845290915290205460ff165b8061065657506000818152600460205260409020546001600160a01b031633145b6106935760405162461bcd60e51b815260206004820152600e60248201526d1393d517d055551213d49256915160921b6044820152606401610449565b6001600160a01b0380841660008181526003602090815260408083208054600019019055938616808352848320805460010190558583526002825284832080546001600160a01b03199081168317909155600490925284832080549092169091559251849392917fddf252ad1be2c89b69c2b068fc378daa952ba7f163c4a11628f55a4df523b3ef91a4505050565b61072d83838361055b565b6001600160a01b0382163b15806107d65750604051630a85bd0160e11b8082523360048301526001600160a01b03858116602484015260448301849052608060648401526000608484015290919084169063150b7a029060a4016020604051808303816000875af11580156107a6573d6000803e3d6000fd5b505050506040513d601f19601f820116820180604052508101906107ca9190610ff4565b6001600160e01b031916145b6108155760405162461bcd60e51b815260206004820152601060248201526f155394d0519157d49150d2541251539560821b6044820152606401610449565b505050565b6000818152600260205260409020546001600160a01b03168061086c5760405162461bcd60e51b815260206004820152600a6024820152691393d517d3525395115160b21b6044820152606401610449565b919050565b60006001600160a01b0382166108b85760405162461bcd60e51b815260206004820152600c60248201526b5a45524f5f4144445245535360a01b6044820152606401610449565b506001600160a01b031660009081526003602052604090205490565b6108dc610b9c565b6108e66000610bf6565b565b6001805461034690610f99565b3360008181526005602090815260408083206001600160a01b03871680855290835292819020805460ff191686151590811790915590519081529192917f17307eab39ab6107e8899845ad3d59bd9653f200f220920489ca2b5937696c31910160405180910390a35050565b61096c85858561055b565b6001600160a01b0384163b1580610a035750604051630a85bd0160e11b808252906001600160a01b0386169063150b7a02906109b49033908a90899089908990600401611011565b6020604051808303816000875af11580156109d3573d6000803e3d6000fd5b505050506040513d601f19601f820116820180604052508101906109f79190610ff4565b6001600160e01b031916145b610a425760405162461bcd60e51b815260206004820152601060248201526f155394d0519157d49150d2541251539560821b6044820152606401610449565b5050505050565b606081600114610a885760405162461bcd60e51b815260206004820152600a6024820152694f4e455f4f465f4f4e4560b01b6044820152606401610449565b60075460405163c87b56dd60e01b8152600481018490526001600160a01b039091169063c87b56dd90602401600060405180830381865afa158015610ad1573d6000803e3d6000fd5b505050506040513d6000823e601f3d908101601f191682016040526103339190810190611065565b610b01610b9c565b6001600160a01b038116610b665760405162461bcd60e51b815260206004820152602660248201527f4f776e61626c653a206e6577206f776e657220697320746865207a65726f206160448201526564647265737360d01b6064820152608401610449565b610b6f81610bf6565b50565b610b7a610b9c565b600780546001600160a01b0319166001600160a01b0392909216919091179055565b6006546001600160a01b031633146108e65760405162461bcd60e51b815260206004820181905260248201527f4f776e61626c653a2063616c6c6572206973206e6f7420746865206f776e65726044820152606401610449565b600680546001600160a01b038381166001600160a01b0319831681179093556040519116919082907f8be0079c531659141344cd1fd0a4f28419497f9722a3daafe3b4186f6b6457e090600090a35050565b6001600160e01b031981168114610b6f57600080fd5b600060208284031215610c7057600080fd5b8135610c7b81610c48565b9392505050565b60005b83811015610c9d578181015183820152602001610c85565b50506000910152565b60008151808452610cbe816020860160208601610c82565b601f01601f19169290920160200192915050565b602081526000610c7b6020830184610ca6565b600060208284031215610cf757600080fd5b5035919050565b80356001600160a01b038116811461086c57600080fd5b60008060408385031215610d2857600080fd5b610d3183610cfe565b946020939093013593505050565b634e487b7160e01b600052604160045260246000fd5b604051601f8201601f1916810167ffffffffffffffff81118282101715610d7e57610d7e610d3f565b604052919050565b600067ffffffffffffffff821115610da057610da0610d3f565b50601f01601f191660200190565b60008060408385031215610dc157600080fd5b82359150602083013567ffffffffffffffff811115610ddf57600080fd5b8301601f81018513610df057600080fd5b8035610e03610dfe82610d86565b610d55565b818152866020838501011115610e1857600080fd5b816020840160208301376000602083830101528093505050509250929050565b600080600060608486031215610e4d57600080fd5b610e5684610cfe565b9250610e6460208501610cfe565b9150604084013590509250925092565b600060208284031215610e8657600080fd5b610c7b82610cfe565b60008060408385031215610ea257600080fd5b610eab83610cfe565b915060208301358015158114610ec057600080fd5b809150509250929050565b600080600080600060808688031215610ee357600080fd5b610eec86610cfe565b9450610efa60208701610cfe565b935060408601359250606086013567ffffffffffffffff80821115610f1e57600080fd5b818801915088601f830112610f3257600080fd5b813581811115610f4157600080fd5b896020828501011115610f5357600080fd5b9699959850939650602001949392505050565b60008060408385031215610f7957600080fd5b610f8283610cfe565b9150610f9060208401610cfe565b90509250929050565b600181811c90821680610fad57607f821691505b602082108103610fcd57634e487b7160e01b600052602260045260246000fd5b50919050565b828152604060208201526000610fec6040830184610ca6565b949350505050565b60006020828403121561100657600080fd5b8151610c7b81610c48565b6001600160a01b038681168252851660208201526040810184905260806060820181905281018290526000828460a0840137600060a0848401015260a0601f19601f85011683010190509695505050505050565b60006020828403121561107757600080fd5b815167ffffffffffffffff81111561108e57600080fd5b8201601f8101841361109f57600080fd5b80516110ad610dfe82610d86565b8181528560208385010111156110c257600080fd5b6110d3826020830160208601610c82565b9594505050505056fea2646970667358221220b794cce99c5e2db7345969c3193458d22a45aa104023ea40d472292b9a3544fe64736f6c63430008130033",
    "linkReferences": {}
  },
  "methodIdentifiers": {
    "approve(address,uint256)": "095ea7b3",
    "balanceOf(address)": "70a08231",
    "getApproved(uint256)": "081812fc",
    "isApprovedForAll(address,address)": "e985e9c5",
    "metadataRenderer()": "70319970",
    "name()": "06fdde03",
    "owner()": "8da5cb5b",
    "ownerOf(uint256)": "6352211e",
    "renounceOwnership()": "715018a6",
    "safeTransferFrom(address,address,uint256)": "42842e0e",
    "safeTransferFrom(address,address,uint256,bytes)": "b88d4fde",
    "setApprovalForAll(address,bool)": "a22cb465",
    "setMetadataRenderer(address)": "fd4fe8a8",
    "setTokenURI(uint256,string)": "162094c4",
    "supportsInterface(bytes4)": "01ffc9a7",
    "symbol()": "95d89b41",
    "tokenURI(uint256)": "c87b56dd",
    "transferFrom(address,address,uint256)": "23b872dd",
    "transferOwnership(address)": "f2fde38b"
  },
  "id": 24
}